:020000040000fa
:080000000002040000000000f2
:020000040000fa
:0400080010040000e0
:020000040000fa
:04000c0010040000dc
:020000040000fa
:0400100010040000d8
:020000040000fa
:0400140010040000d4
:020000040000fa
:0400180010040000d0
:020000040000fa
:04001c0010040000cc
:020000040000fa
:0400200010040000c8
:020000040000fa
:0400240010040000c4
:020000040000fa
:0400280010040000c0
:020000040000fa
:04002c0010040000bc
:020000040000fa
:0400300010040000b8
:020000040000fa
:04003400fa020000cc
:020000040000fa
:0400380010040000b0
:020000040000fa
:04003c0010040000ac
:020000040000fa
:0400400010040000a8
:020000040000fa
:0400440010040000a4
:020000040000fa
:04004800240300008d
:020000040000fa
:04004c00100400009c
:020000040000fa
:040050001004000098
:020000040000fa
:040054008003000025
:020000040000fa
:04005800560300004b
:020000040000fa
:04005c00c4030000d9
:020000040000fa
:040060001004000088
:020000040000fa
:040064001004000084
:020000040000fa
:040068001004000080
:020000040000fa
:04006c00100400007c
:020000040000fa
:040070001004000078
:020000040000fa
:040074001004000074
:020000040000fa
:040078001004000070
:020000040000fa
:04007c00100400006c
:020000040000fa
:040080001004000068
:020000040000fa
:040084001004000064
:020000040000fa
:040088001004000060
:020000040000fa
:04008c00100400005c
:020000040000fa
:040090001004000058
:020000040000fa
:040094002c03000039
:020000040000fa
:040098001004000050
:020000040000fa
:04009c00100400004c
:020000040000fa
:0400a0001004000048
:020000040000fa
:0400a4001004000044
:020000040000fa
:0400a8001004000040
:020000040000fa
:0400ac00100400003c
:020000040000fa
:0400b0001004000038
:020000040000fa
:0400b4001004000034
:020000040000fa
:0400b8001004000030
:020000040000fa
:0400bc00100400002c
:020000040000fa
:0400c0001004000028
:020000040000fa
:0400c4001004000024
:020000040000fa
:0400c8001004000020
:020000040000fa
:0400cc00100400001c
:020000040000fa
:0400d0001004000018
:020000040000fa
:0400d4001004000014
:020000040000fa
:0400d8001004000010
:020000040000fa
:0400dc00100400000c
:020000040000fa
:0400e0001004000008
:020000040000fa
:0400e4001004000004
:020000040000fa
:0400e8001004000000
:020000040000fa
:0400ec0010040000fc
:020000040000fa
:0400f00010040000f8
:020000040000fa
:0400f40010040000f4
:020000040000fa
:0400f80010040000f0
:020000040000fa
:0400fc0010040000ec
:020000040000fa
:0401000010040000e7
:020000040000fa
:0401040010040000e3
:020000040000fa
:0401080010040000df
:020000040000fa
:04010c0010040000db
:020000040000fa
:0401100010040000d7
:020000040000fa
:0401140010040000d3
:020000040000fa
:0401180010040000cf
:020000040000fa
:04011c0010040000cb
:020000040000fa
:0401200010040000c7
:020000040000fa
:0401240010040000c3
:020000040000fa
:0401280010040000bf
:020000040000fa
:04012c0010040000bb
:020000040000fa
:0401300010040000b7
:020000040000fa
:0401340010040000b3
:020000040000fa
:0401380010040000af
:020000040000fa
:04013c0010040000ab
:020000040000fa
:0401400010040000a7
:020000040000fa
:0401440010040000a3
:020000040000fa
:04014800100400009f
:020000040000fa
:04014c00100400009b
:020000040000fa
:040150001004000097
:020000040000fa
:040154001004000093
:020000040000fa
:04015800100400008f
:020000040000fa
:04015c00100400008b
:020000040000fa
:040160001004000087
:020000040000fa
:040164001004000083
:020000040000fa
:04016800100400007f
:020000040000fa
:04016c00100400007b
:020000040000fa
:040170001004000077
:020000040000fa
:040174001004000073
:020000040000fa
:04017800100400006f
:020000040000fa
:04017c00100400006b
:020000040000fa
:040180001004000067
:020000040000fa
:040184001004000063
:020000040000fa
:04018800100400005f
:020000040000fa
:04018c00100400005b
:020000040000fa
:040190001004000057
:020000040000fa
:040194001004000053
:020000040000fa
:04019800100400004f
:020000040000fa
:04019c00100400004b
:020000040000fa
:0401a0001004000047
:020000040000fa
:0401a4001004000043
:020000040000fa
:0401a800100400003f
:020000040000fa
:0401ac00100400003b
:020000040000fa
:0401b0001004000037
:020000040000fa
:0401b4001004000033
:020000040000fa
:0401b800100400002f
:020000040000fa
:0401bc00100400002b
:020000040000fa
:0401c0001004000027
:020000040000fa
:0401c4001004000023
:020000040000fa
:0401c800100400001f
:020000040000fa
:0401cc00100400001b
:020000040000fa
:0401d0001004000017
:020000040000fa
:0401d4001004000013
:020000040000fa
:0401d800100400000f
:020000040000fa
:0401dc00100400000b
:020000040000fa
:0401e0001004000007
:020000040000fa
:0401e4001004000003
:020000040000fa
:0401e80010040000ff
:020000040000fa
:0401ec0010040000fb
:020000040000fa
:0401f00010040000f7
:020000040000fa
:0401f40010040000f3
:020000040000fa
:0401f80010040000ef
:020000040000fa
:0401fc0010040000eb
:020000040000fa
:0402000010040000e6
:020000040000fa
:0402040010040000e2
:020000040000fa
:0402080010040000de
:020000040000fa
:04020c0010040000da
:020000040000fa
:0402100010040000d6
:020000040000fa
:0402140010040000d2
:020000040000fa
:0402180010040000ce
:020000040000fa
:04021c0010040000ca
:020000040000fa
:0402200010040000c6
:020000040000fa
:0402240010040000c2
:020000040000fa
:0402280010040000be
:020000040000fa
:04022c0010040000ba
:020000040000fa
:0402300010040000b6
:020000040000fa
:0402340010040000b2
:020000040000fa
:0402380010040000ae
:020000040000fa
:04023c0010040000aa
:020000040000fa
:0402400010040000a6
:020000040000fa
:0402440010040000a2
:020000040000fa
:04024800100400009e
:020000040000fa
:04024c00100400009a
:020000040000fa
:040250001004000096
:020000040000fa
:040254001004000092
:020000040000fa
:04025800100400008e
:020000040000fa
:04025c00100400008a
:020000040000fa
:040260001004000086
:020000040000fa
:040264001004000082
:020000040000fa
:04026800100400007e
:020000040000fa
:04026c00100400007a
:020000040000fa
:040270001004000076
:020000040000fa
:040274001004000072
:020000040000fa
:04027800100400006e
:020000040000fa
:04027c00100400006a
:020000040000fa
:040280001004000066
:020000040000fa
:10040000ef1a21000eff2c000e01880000000000f2
:10041000000020000000e000020032000001200087
:100420002002880014000700ff0007000000e00021
:1004300003003a008006210001002000020037007e
:100440000000200001002000810f70000100320038
:100450000f000700000020000000e0000200320052
:1004600000000200000000001a110200000000005d
:100470000040da000000fe00200020000000e00044
:1004800002003200100020009001880000000600e9
:10049000a1028800800478000000eb001f003700f4
:1004a000e284440054a0b4009905ba00e2844400f8
:1004b00054a0b4009906ba00e284440054a0b400e9
:1004c0000006eb00476fde00fd07b200ae018800ba
:1004d000636ce10003003a000ad801000000eb0061
:1004e0000e003700606ce10008003a00004deb00a0
:1004f0000a05e800020039003420ec000af0a000f0
:100500008b05e900f9ff3e00040037006168e10057
:10051000010032000086eb000b00070019c7ba008b
:100520000e04e0001905ba0003003a000a00e000da
:10053000dbff3a0000000600fe07b200ae028800b2
:100540008a047800f5ff37000cd0a300e20f4d00bd
:100550001c00390089027800354dba000a05e80010
:10056000020039003420ec000af0a0008b05e900fd
:100570000f003200254dba000a05e80002003900dc
:100580003420ec000af0a0008b05e90008003200de
:100590000c00e0000600320015cdba000a05e800a4
:1005a000020039003420ec000af0a0008b05e900bd
:1005b0008984e80054a0b4000b00e000e2ff3a0098
:1005c000000006009902ba00055d78008b05e9007d
:1005d000f7ff3200c82ade00055d78008b05e900d0
:1005e000f3ff32000c00e000f1ff320019ddba0029
:1005f000eeff37003600f800809fbe00829fbe00ed
:10060000849fbe00869fbe000000fa000068a9001b
:10061000fa050700b0808000c180800061004000c2
:10062000e0804800b0808800c18088000080fa0027
:100630004f03be004f02be004f01be004f00be0080
:100640003600f900004006000000fa000108a90089
:100650000080fa0000400600809fbe000000fa0003
:100660000368a9002173800000082000008060005a
:1006700000f0a7000000ea000000e9004f00de00e3
:10068000004078000080fb00610060004700dd0052
:10069000217380000170a1000100700020738800a8
:1006a0000080fa004f00be00004006003600f8004f
:1006b000809fbe00829fbe00849fbe00869fbe00ba
:1006c0000000fa000188a900f1808000e08080002d
:1006d000808f5000020032006f05070001003700d4
:1006e0002070ef000080fa004f03be004f02be00f2
:1006f0004f01be004f00be003600f900004006006a
:100700003600f800809fbe00829fbe00849fbe001e
:10071000869fbe000000fa000168a9001011800049
:10072000640060000000e000010032002242a900e5
:1007300010118000620060000000e000060032003e
:100740002222a90005003700301180000040780007
:10075000bb050700010037000000000010118000f9
:10076000610060000000e000f7ff3a000080fa003e
:100770004f03be004f02be004f01be004f00be003f
:100780003600f900004006003600f800809fbe00e9
:10079000829fbe00849fbe00869fbe000000fa00bc
:1007a00001a8a900101880008000eb00e4000700f9
:1007b000808088009180880010c0b30014f0b700da
:1007c000660607002173800000042000008060009e
:1007d00000f0a7000000ea000000e9004f00de0082
:1007e000004078000080fb00610060004600dd00f2
:1007f000217380000160a100010070002073880057
:100800008b0507000080fa004f03be004f02be00b8
:100810004f01be004f00be003600f9000040060048
:100820000040da000000fe000000050003f0a20016
:10083000889fbe008a9fbe008c1f78004e01070073
:10084000550133006450e1004f0032006420e100a4
:100850005200320003826c0007003b000905d00003
:100860000306d000820f54000c065d000200390020
:100870000200320089017800030678008582550065
:1008800004003d000003fd008103fd008502ea0035
:100890008b854200840f720002003b006000100054
:1008a000e08018006011b8000005eb007a28e10034
:1008b0000a00390006007800c75ddd00f707b200c6
:1008c000878075002d003700828171000a01780051
:1008d000610560008180d1000080d3008502e900bd
:1008e000f9ff3b00060440008784480002003b00fb
:1008f00060041400e0841c000988a3000700320093
:100900008a81710082817100610164008904d100d3
:100910000884d3008b05e800170037000978a3008e
:1009200013003a000b00e000130034008b05e900cf
:100930000804440089844c000a4474000978a30028
:100940000d003a000b00e000070034008b05e900c1
:100950000804440089844c0001003a000b00200088
:100960000978a300f7ff32000001eb000200370016
:10097000828171000a017800c40007000cf0a70012
:1009800001f0a0000d0137006420e10002003a00f0
:10099000838f6c000d0133000801be000200be0011
:1009a00006013700889fbe008a9fbe008c1f78001a
:1009b000f1000700f800330003866c006450e1008a
:1009c0002e0032006420e100330032006150e1006b
:1009d0002f0032006120e100310032008585550092
:1009e000eb07b000090020000804200005003700d4
:1009f0000804440089844c000a00310006034300c7
:100a000087834b000001530081815b00f8ff3300b6
:100a10000203be000800a0000804440089844c00c2
:100a2000f6ff3900c639dd00830173000100320092
:100a3000130020008904d1000884d3000998a30082
:100a4000050032000800a7000300a0008904d100bf
:100a50000884d3008b05e8008904d1000884d30002
:100a60000001eb000281d2008800070001f0a10024
:100a70000cf0a70001f0a000d00037006420e100d6
:100a8000d20032000801be000200be00f7ff3700ae
:100a90006120e100cd0032006000b800f3ff3700b4
:100aa0000000200001f82700f0ff370014002000ac
:100ab000fd003700f4ff2f00fb0037000001be00ef
:100ac000980007000470a70003f0a1006509b100b9
:100ad000160032000d0035006828e10006003500e0
:100ae000f0ff2f00f1ff27000300e00013003b00a0
:100af000010028000000050000004000818048003f
:100b00008502e900fcff3a0008003700f88f420038
:100b100002003c008000eb00000005008100d100d5
:100b20000080d3008502e800fcff3a000300e000eb
:100b300002003b0060001000e0801800000006008a
:100b40006011b800f30037000400200000003700f7
:100b5000889fbe008a9fbe008c1f78004f26dd0054
:100b6000850007008c0033006120e1004300320063
:100b70006250e10041003e003e0039006420e10087
:100b80003c003200058255000f003b000402e800e3
:100b900038003a00800f5300818f5b00350034002d
:100ba0000800be0003f0a10001f0a60003f0a000c1
:100bb0000cf0a7001eff070080003700060343006b
:100bc00087834b000c4646000005530081855b007f
:100bd000020033000a03be000c00a0000402e9007a
:100be000f6ff3b00850578000602430087824b0034
:100bf00004003a006000b80009f0a70001f0a0006e
:100c00006e0037000002520081825a000704e000a3
:100c1000040033000603430087834b008b05e90083
:100c2000faff3700090578000604be000203be0083
:100c30006011b80015000700e00f5200e08f5a0065
:100c40000700350002003c000c08a300040032003d
:100c50000601be0003f0a0000cf0a700f4fe0700a0
:100c60000a85680001f0a1000af0a70001f0a000c9
:100c7000520037000800be0050003700100220006c
:100c80000cf0a60060818800500037008100200031
:100c9000618055000b003d000b00200061fe2f001d
:100ca0000100e1001d0034008281710061016400d7
:100cb0008904d1000884d3000000e800faff3a005c
:100cc00071002000610064000300700002006000f9
:100cd0000900320061044400e0844c000988a5004a
:100ce000050032008b05e8006808e10002003a00c8
:100cf0008904d1000884d300f20f20000258e100db
:100d000005003d00c75ddd00f907b2008980750070
:100d100008007800000006000bf827008b00780020
:100d200000000500c70ade00f107b200f50fb200af
:100d300008003200e1cf4200020032000170a00042
:100d400024000500810f7000010032000408050036
:100d500044000500810f700002003a0014000500f5
:100d60008502e9000000400081c04800fcff3b0014
:100d70000170a000240005000004be00e9ff070088
:100d80000003be000405be000200be00e5ff070030
:100d9000844f7500000006000200be006450e100b0
:100da000050036006420e100020036000968a30057
:100db00001003a000800be000160a0004f06780064
:100dc0004f05be004f04be0000000600f0ff2f00dc
:100dd000f1ff2700f9ff3700889fbe008a9fbe0001
:100de0008c1f7800e4ff0700ebff330003866c00e4
:100df0006450e100240032006420e100270032004a
:100e00006150e100220032006120e1002100320047
:100e10008b854200eb07b1000134b800003ab800fe
:100e20000804420089844a00013ab8000030b80042
:100e30008880400009014a0004003300000040009f
:100e400081804800020149008b05e900c909dd00e5
:100e5000830170000100320013002000c814de007e
:100e60004814dd004709de001200b200c808de00a9
:100e70000884700085ff070001f0a1000cf0a700b6
:100e800001f0a000cdff37006120e100cfff32006c
:100e90000801be000200be00f7ff37006150e1000c
:100ea000fcff3a00c9ff3700889fbe008a9fbe0042
:100eb000841f7800b0ff07004f0078001100330056
:100ec000f0ff2f00838f6c0006003b0004056500d7
:100ed0000a00a7000800370009f0a6001000200053
:100ee00008003700820f5400838f5c000300390034
:100ef0001000200001003e000000200009f0a700c3
:100f00000000ea004f05be004f04be000000e000f4
:100f100000000600889fbe008a9fbe00008270000d
:100f20000402710004827100260032000004be0039
:100f30000200be006011b8006b092000950220007d
:100f40000182cf000a0039000541b1000082cf00c4
:100f5000070039000541b1000982cf0004003900c3
:100f60000541b1000882cf00010039000541b10000
:100f700005425200120032000a003b0082817100db
:100f8000610164008100d1000080d3008984d30016
:100f90000884d3008b05e8000442e800f7ff3a001c
:100fa000070037000804440089844c000000480012
:100fb000818048008b05e9000442e900f9ff3a000e
:100fc00032ff07004f05be004f04be0000000600c0
:020000040000fa
:100fd0000000fa0013e1a90011e1a9001061a800c6
:100fe0001021a90081088000f0fc2f000080600023
:100ff000800888000a21ef000621ef00c0032000ce
:10100000700888000c21ef002142800080ff2f0033
:10101000008060000000a000204288000108a900b4
:101020002108a80011e1a8000080fa0000000600d5
:101030000000fa0005e1a9000421a9000068a90048
:101040002068a80005e1a80000002000a1472400b6
:101050000d0007000080fa00000006000000fa0002
:101060001fe1a9001e21a9000368a9002368a800a8
:101070001fe1a800000020000112240076000700f4
:101080000080fa00000006000400fa00881f7800c3
:10109000008fbe0021088000f0fc2f00008060005f
:1010a000200888001e0178009e0190000068290039
:1010b00081c124003bfe070018c0b30002f02f00de
:1010c000f37724007bfe07000000e00001003c00f5
:1010d0000044eb000804e0005400320021088000c6
:1010e000f0fc2f00008060000040a0002008880075
:1010f0001e0178009e0190000068290081c1240033
:1011000028fe0700020020000310240025fe07002f
:1011100018c0b30002f02f00f377240065fe07002b
:101120000000e00001003c000044eb000804e00087
:101130003200320021088000f0fc2f0000806000a7
:101140000050a000200888001e0178009e01900039
:101150000068290081c1240012fe0700020020005f
:10116000032824000ffe070018c0b30002f02f0070
:10117000f37724004ffe07000000e00001003c0070
:101180000044eb000804e000100032002108800059
:101190000003200001007000200888001e01780074
:1011a0009e0190000068290081c12400fdfd070018
:1011b0000200200003382400fafd07003ffe07006c
:1011c0000000780010088800200037001e01780019
:1011d0009e0190000068290081c12400f1fd0700f4
:1011e0000200200003282400eefd070033fe070064
:1011f0000000780010088800140037001e017800f5
:101200009e0190000068290081c12400e5fd0700cf
:101210000200200003102400e2fd070027fe070063
:101220000000780010088800080037001e017800d0
:101230009e0190000068290081c12400d9fd0700ab
:101240001efe070000007800100888004f04780098
:101250000080fa00000006000400fa00881f7800f1
:10126000008fbe00f1088000f0fc2f0000806000bd
:10127000f00888001e0178009e0190000068290097
:1012800081c12400c7fd070018c0b30002f02f0081
:10129000f377240007fe07000000e00001003c0097
:1012a0000044eb000804e00054003200f108800024
:1012b000f0fc2f00008060000040a000f0088800d3
:1012c0001e0178009e0190000068290081c1240061
:1012d000b4fd07000200200003102400b1fd070048
:1012e00018c0b30002f02f00f3772400f1fd0700cf
:1012f0000000e00001003c000044eb000804e000b6
:1013000032003200f1088000f0fc2f000080600005
:101310000050a000f00888001e0178009e01900097
:101320000068290081c124009efd07000200200002
:10133000032824009bfd070018c0b30002f02f0013
:10134000f3772400dbfd07000000e00001003c0013
:101350000044eb000804e00010003200f1088000b7
:101360000003200001007000f00888001e017800d2
:101370009e0190000068290081c1240089fd0700ba
:10138000020020000338240086fd0700cbfd070083
:101390000000780010088800200037001e01780047
:1013a0009e0190000068290081c124007dfd070096
:1013b00002002000032824007afd0700bffd07007b
:1013c0000000780010088800140037001e01780023
:1013d0009e0190000068290081c1240071fd070072
:1013e00002002000031024006efd0700b3fd07007b
:1013f0000000780010088800080037001e017800ff
:101400009e0190000068290081c1240065fd07004d
:10141000aafd070000007800100888004f0478003b
:101420000080fa00000006000400fa00881f78001f
:10143000008fbe0018c0b3006011b8001e00780015
:101440009e0090009bfd07000000e00001003d00b1
:101450000044eb000804e000030032001e007800a6
:101460009e009000030037001e0078009e00900050
:1014700001f0a2004f0478000080fa00000006008e
:101480000800fa00881f7800008fbe00220798002d
:101490003307980018c0b3002e019000be019000e1
:1014a0001e0078009e00900082fd07000000e00012
:1014b00001003c000044eb000804e000030032009f
:1014c0001e0078009e009000020037002e00900061
:1014d000be0090004f0478000080fa000000060073
:1014e0000800fa00881f7800008fbe0022079800cd
:1014f0003307980018c0b3002e019000be01900081
:101500001e0078009e00900068fd07000000e000cb
:10151000010035000044eb000804e0000300320045
:101520001e0078009e009000020037002e00900000
:10153000be0090004f0478000080fa000000060012
:101540000c00fa00881f7800008fbe002207980068
:1015500033079800440798005507980018c0b30057
:101560002e019000be0190001e0078009e009000a9
:101570004efd07000000e000010035000044eb00d4
:101580000804e000030032002e009000be0090002e
:101590001000370018c0b3004e019000de0190002b
:1015a0001e0078009e00900042fd07000000e00051
:1015b00001003c000044eb000804e000030032009e
:1015c0004e009000de009000020037001e00780000
:1015d0009e0090004f0478000080fa000000060092
:1015e0000800fa002007980031079800b2fd20009b
:1015f000930424002e009000be0090008bfc070096
:10160000b2fd2000930c24004ffd0700b2fd200026
:101610009304240086fc0700008fbe00b2fd20006a
:10162000930424001e0078009e00900080fc0700b8
:10163000b2fd2000930c240043fd0700b2fd200002
:101640009304240079fc07000080fa0000000600e3
:101650000a00fa003007980041079800be00900089
:101660004e009000008f40001e00780010017800ae
:101670009001900012079800230798001e00900028
:10168000ae0090000080fa00000006000600fa009c
:1016900010079800210798009e0090002e009000ef
:1016a000008f40001e00780090009000100078002d
:1016b0000080fa00000006000c00fa0020079800e5
:1016c00031079800420798005307980068004700c8
:1016d000100798000000eb00000f78000a003700a8
:1016e0003e0090001e004000ae00900000804000d0
:1016f0009e0078001e01900081004100914078001a
:10170000014878001e0fe8001e007800e30f50002b
:10171000f3ff34000080fa00000006000c00fa001d
:101720002007980031079800420798005307980057
:1017300068004700100798000000eb00000f7800d9
:101740000b0037003e0090001e004000ae009000ed
:1017500000804000320020009e0051001e019000d9
:101760008100410091407800014878001e0fe80098
:101770001e007800e30f5000f2ff34000080fa00f2
:10178000000006000c00fa002007980031079800be
:101790004207980053079800680047001007980018
:1017a0000000eb00000f78000a0037003e009000b8
:1017b0001e004000ae009000008040009e007800b7
:1017c0001e0190008100410091407800014878009e
:1017d0001e0fe8001e007800e70f5000f3ff3400f2
:1017e0000080fa00000006000a00fa0020079800b6
:1017f0003107980042079800e0cfb300004f78000f
:101800002e009000804078001e40780000c06800e4
:10181000004f78003e009000804078001e40780025
:1018200000c06800004f78000000eb00100798002f
:10183000080037001e009000ce009000008040009d
:10184000104078001e4f68001e0090000000e80065
:10185000100798009e0090003e009000808f50007e
:10186000f4ff35001e4078000080fa0000000600fa
:101870000e00fa00889fbe004007980051079800ac
:10188000620798000f0478000f0078008004780049
:101890000000eb00000f78000000eb00100798003c
:1018a0005e009000660040008000e900210798007b
:1018b0000000e8000000e8000000d10080004000c7
:1018c0000f007800818747000000e8000000d10089
:1018d00000004000300798003e0090001e004000cd
:1018e000e1cfb300014878001e0fe8004e009000e1
:1018f0004880de00804078003e0090001e004000de
:10190000014878001e0fe8004e00900080407800eb
:101910003e0090001e004000014878001e0fe800c5
:101920005e0090004880de00804078003e0090001d
:101930001e004000014878001e0fe8005e00900085
:10194000804078003e0090001e0040000148780072
:101950001e0fe8000000eb00100798000b00370096
:101960001e009000ee009000008040009040780043
:101970003e0090001e004000014878001e0fe80065
:101980001e0090000000e800100798009e009000e4
:101990005e009000808f5000f1ff35006e019000d6
:1019a000de0090004e0090008fff0700be00900008
:1019b0009e804000804878001e0fe8003e009000a6
:1019c0009e00780076000700890778008807780075
:1019d0004f04be000080fa00000006000200fa007a
:1019e000004f780060808000e30f50002400320038
:1019f000e30f500005003e00e10f500011003200df
:101a0000e10f500017003e0007003700e50f5000bf
:101a100031003200e50f500021003900e60f500080
:101a20003a003200510037001e407800e24f40007b
:101a300051003a0010002000608088000630ef005e
:101a4000500037001e80fb0000808800008080006e
:101a50004800dd00008088002000200060808800b1
:101a6000480037009e80fb0000808000008040001e
:101a7000008088003000200060808800410037002e
:101a80001e80fb0010808800108080004800dd0070
:101a900010808800400020006080880039003700f6
:101aa0009e80fb0010808000008040001080880035
:101ab000108080000000e00003003a006000200079
:101ac000608088002f003700500020006080880070
:101ad0000430ef002b00370020808000e10221005d
:101ae000808040009e4878000000e8002080880048
:101af0002180800010808000808f500020003a00fc
:101b000060002000608088001e0037001e417800c1
:101b100081002100824878001180800000808000d0
:101b2000e202210030ff070009f0b700100020009a
:101b300030808800810021009140780009d0bf00ea
:101b400080cf500006003a0010002000508188002d
:101b500000808000e10221000c0007000100370036
:101b60002a30ef000c30ef00060037000c30ef0099
:101b700000000000030037000000000001003700f3
:101b8000000000000080fa00000006000400fa00d7
:101b9000000f7800110798000080fa00000006008e
:101ba0000600fa0010079800210798000040eb009b
:101bb000004f780045000700ae009000810f5000f4
:101bc000110034000040eb00004f780006003700a1
:101bd0001e80fb009e0090000080400010407800b6
:101be0000b0007001e4fe8009e80fb002e009000b7
:101bf000808f5000f6ff3500300007000004e00041
:101c000001003a00240007000080fa0000000600ee
:101c10000200fa00004f7800e0808000e10a210015
:101c2000008040001e487800e1808000e00720002e
:101c3000808f5000020034001c30ef00030037009a
:101c4000e08080000000e800e08088000080fa006a
:101c5000000006000200fa00f0808000e10a210086
:101c600000804000104f7800f1808000e0072000e5
:101c7000808f5000020034001e30ef000300370058
:101c8000f08080000000e800f08088001e407800ae
:101c90000080fa00000006000200fa0010c0b30045
:101ca00020f0b700ebff0700004f78001e80fb001c
:101cb000201188000080fa00000006000000fa00f1
:101cc00020d0bf000080fa00000006000000fa00eb
:101cd000e1808000f0808000808f5000050034009b
:101ce000f1808000e0808000008050000008b0009b
:101cf00004003700e1808000f08080000080500008
:101d00000008b0000080fa00000006000000fa00a1
:101d100021e3a9002143a80001198000f0cf2f0082
:101d200000806000001988002043a900011980008c
:101d3000000e2000010070000019880011198000b9
:101d4000f0ff210000806000101988002343a800e4
:101d500011198000f0cf2f0000806000101988005a
:101d60001119800030f82f00008060004001b3009e
:101d7000101988002203a9002223a90025e3a90045
:101d8000f0c0b30024e3b70021198000f00f2e004b
:101d90008080600000f020000100700020198800a1
:101da0003303a9002e0ea8002f6ea8006f2ea800e6
:101db0004feea8000f8ea8001e2ea80030c3a8006a
:101dc0003163a8002e03a8003063a8003143a800a7
:101dd00031e3a8004119800000fc2f000080600062
:101de0004019880028e3a90001a8a90021a8a8009b
:101df00021e3a8000080fa00000006000000fa00bd
:101e00002023a8000080fa00000006000000fa006d
:101e100080808000918080000080fa000000060031
:101e20000000fa0014d0bf000080fa000000060095
:101e30000000fa001470ef000080fa0000000600b5
:101e40000200fa00004f78002c0007000000e000bc
:101e50000d00340030818000e1122100008040003c
:101e60001e48780031818000e0072000808f5000fc
:101e7000020034002630ef0003003700308180007c
:101e80000000e800308188000080fa0000000600b1
:101e90000200fa0040818000e11221000080400031
:101ea000104f780041818000e0072000808f5000b3
:101eb000020034002830ef0003003700408180002a
:101ec0000000e800408188001e4078000080fa0091
:101ed000000006000000fa0031818000408180008f
:101ee000808f50000200320010c0b30001003700a4
:101ef0000040eb000080fa00000006000000fa003d
:101f00003181800040818000808f500005003400c6
:101f10004181800030818000008050000008b000c6
:101f20000400370031818000408180000080500033
:101f30000008b0000080fa00000006000000fa006f
:101f4000eeff070001082000008050000080fa002a
:101f5000000006000000fa002002a9000111800024
:101f600090ff2f00008060000011880020a2a900cf
:101f70002062a800500520004011880023a2a9007b
:101f800023e2a9000188a9002188a800111180007e
:101f9000f0f32f0000806000101188000168a90094
:101fa0002168a80021e2a8002342a8000080fa00ce
:101fb000000006000600fa001007980021079800ac
:101fc0000040eb00004f78000040eb00004f78002d
:101fd0000e003700000000001111800000202000da
:101fe000008060000000e000fbff3a001e0090004f
:101ff000104078000080fb00201188001e00900037
:102000000000e800100798001e4fe8009e80fb00cb
:102010002e009000808f5000eeff35000080fa0007
:10202000000006000000fa00f0032000303a8800ab
:10203000213a8000f0f32f0000806000203a8800f1
:10204000213a800000fe2f00008060000000a00008
:10205000203a88001200200080072000a1092000fb
:1020600033742000804978008149780082497800e3
:10207000103a8000000178000200a00060042000f7
:102080007105200023742000804978008149780080
:102090008249780000000000113a8000000027000b
:1020a0008080600000002100808f5000faff3a001d
:1020b00000000000113a8000000220000080600053
:1020c0000000e000fbff32000080fa000000060084
:020000040000fa
:1020d0002e100000800000008000000000100000b2
:1020e0000e000000800000002a1000000200000026
:1020f00082000000ffff0000161000000600000034
:102100008000000022100000040000008000000099
:10211000ae10000080000000800000001c100000d5
:1021200006000000800000002e110000800000006a
:102130008000000026100000040000008000000065
:102140000e10000008000000800000002c100000ad
:0c21500002000000800000000000000001
:020000040000fa
:10215c000800fa002aff070032332300330524005d
:10216c001afb070002002000035824000afa07009b
:10217c00d2cc2c00c304240014fb0700108188006f
:10218c0021818800b0808000c18080000001be00e9
:10219c008000eb000e0078005dfd070010818000d0
:1021ac00218180000001be00410020000e0078005b
:1021bc003efd07000e017800810020000001200088
:1021cc00a8fd07000080fa00000006000000fa00dd
:1021dc000e2eef001e2eef002e2eef003e2eef00e7
:1021ec004e2eef005e2eef006e2eef00214ea9005a
:1021fc0060cea90060eea9002136800000f82f0007
:10220c00008060008001b30020368800113480000b
:10221c0000fc2f00008060000000a000103488003b
:10222c000080fa00000006000000fa007aff0700a8
:10223c00e6ff070063fb07007afb070084fb07003f
:0c224c00affe070040ff0700ffff370057
:020000040000fa
:02000004000af0
:04afe000cfff00009f
:020000040000fa
:02000004000af0
:04afe400ffff00006b
:020000040000fa
:02000004000af0
:04afe8007fff0000e7
:020000040000fa
:02000004000af0
:04afec005fff000003
:020000040000fa
:02000004000af0
:04aff00038ff000026
:020000040000fa
:02000004000af0
:04aff400ffffff005c
:00000001FF
