:020000040000fa
:080000000002040000000000f2
:020000040000fa
:040008005e04000092
:020000040000fa
:04000c005e0400008e
:020000040000fa
:040010005e0400008a
:020000040000fa
:040014005e04000086
:020000040000fa
:040018005e04000082
:020000040000fa
:04001c005e0400007e
:020000040000fa
:040020005e0400007a
:020000040000fa
:040024005e04000076
:020000040000fa
:040028005e04000072
:020000040000fa
:04002c005e0400006e
:020000040000fa
:040030005e0400006a
:020000040000fa
:0400340004030000c1
:020000040000fa
:040038005e04000062
:020000040000fa
:04003c005e0400005e
:020000040000fa
:040040005e0400005a
:020000040000fa
:040044005e04000056
:020000040000fa
:040048005e04000052
:020000040000fa
:04004c005e0400004e
:020000040000fa
:040050005e0400004a
:020000040000fa
:040054001a0400008a
:020000040000fa
:04005800f0030000b1
:020000040000fa
:04005c00c6030000d7
:020000040000fa
:040060005e0400003a
:020000040000fa
:040064005e04000036
:020000040000fa
:040068005e04000032
:020000040000fa
:04006c005e0400002e
:020000040000fa
:040070005e0400002a
:020000040000fa
:040074005e04000026
:020000040000fa
:040078005e04000022
:020000040000fa
:04007c005e0400001e
:020000040000fa
:040080005e0400001a
:020000040000fa
:040084005e04000016
:020000040000fa
:040088005e04000012
:020000040000fa
:04008c005e0400000e
:020000040000fa
:040090005e0400000a
:020000040000fa
:040094005e04000006
:020000040000fa
:040098005e04000002
:020000040000fa
:04009c005e040000fe
:020000040000fa
:0400a0005e040000fa
:020000040000fa
:0400a4005e040000f6
:020000040000fa
:0400a8005e040000f2
:020000040000fa
:0400ac005e040000ee
:020000040000fa
:0400b0005e040000ea
:020000040000fa
:0400b4005e040000e6
:020000040000fa
:0400b8005e040000e2
:020000040000fa
:0400bc005e040000de
:020000040000fa
:0400c0005e040000da
:020000040000fa
:0400c4005e040000d6
:020000040000fa
:0400c8005e040000d2
:020000040000fa
:0400cc005e040000ce
:020000040000fa
:0400d0005e040000ca
:020000040000fa
:0400d4005e040000c6
:020000040000fa
:0400d8005e040000c2
:020000040000fa
:0400dc005e040000be
:020000040000fa
:0400e0005e040000ba
:020000040000fa
:0400e4005e040000b6
:020000040000fa
:0400e8005e040000b2
:020000040000fa
:0400ec005e040000ae
:020000040000fa
:0400f0005e040000aa
:020000040000fa
:0400f4005e040000a6
:020000040000fa
:0400f8005e040000a2
:020000040000fa
:0400fc005e0400009e
:020000040000fa
:040100005e04000099
:020000040000fa
:040104005e04000095
:020000040000fa
:040108005e04000091
:020000040000fa
:04010c005e0400008d
:020000040000fa
:040110005e04000089
:020000040000fa
:040114005e04000085
:020000040000fa
:040118005e04000081
:020000040000fa
:04011c005e0400007d
:020000040000fa
:040120005e04000079
:020000040000fa
:040124005e04000075
:020000040000fa
:040128005e04000071
:020000040000fa
:04012c005e0400006d
:020000040000fa
:040130005e04000069
:020000040000fa
:040134005e04000065
:020000040000fa
:040138005e04000061
:020000040000fa
:04013c005e0400005d
:020000040000fa
:040140005e04000059
:020000040000fa
:040144005e04000055
:020000040000fa
:040148005e04000051
:020000040000fa
:04014c005e0400004d
:020000040000fa
:040150005e04000049
:020000040000fa
:040154005e04000045
:020000040000fa
:040158005e04000041
:020000040000fa
:04015c005e0400003d
:020000040000fa
:040160005e04000039
:020000040000fa
:040164005e04000035
:020000040000fa
:040168005e04000031
:020000040000fa
:04016c005e0400002d
:020000040000fa
:040170005e04000029
:020000040000fa
:040174005e04000025
:020000040000fa
:040178005e04000021
:020000040000fa
:04017c005e0400001d
:020000040000fa
:040180005e04000019
:020000040000fa
:040184005e04000015
:020000040000fa
:040188005e04000011
:020000040000fa
:04018c005e0400000d
:020000040000fa
:040190005e04000009
:020000040000fa
:040194005e04000005
:020000040000fa
:040198005e04000001
:020000040000fa
:04019c005e040000fd
:020000040000fa
:0401a0005e040000f9
:020000040000fa
:0401a4005e040000f5
:020000040000fa
:0401a8005e040000f1
:020000040000fa
:0401ac005e040000ed
:020000040000fa
:0401b0005e040000e9
:020000040000fa
:0401b4005e040000e5
:020000040000fa
:0401b8005e040000e1
:020000040000fa
:0401bc005e040000dd
:020000040000fa
:0401c0005e040000d9
:020000040000fa
:0401c4005e040000d5
:020000040000fa
:0401c8005e040000d1
:020000040000fa
:0401cc0052030000da
:020000040000fa
:0401d0005e040000c9
:020000040000fa
:0401d4005e040000c5
:020000040000fa
:0401d8005e040000c1
:020000040000fa
:0401dc005e040000bd
:020000040000fa
:0401e0005e040000b9
:020000040000fa
:0401e4005e040000b5
:020000040000fa
:0401e8005e040000b1
:020000040000fa
:0401ec005e040000ad
:020000040000fa
:0401f0005e040000a9
:020000040000fa
:0401f4005e040000a5
:020000040000fa
:0401f8005e040000a1
:020000040000fa
:0401fc005e0400009d
:020000040000fa
:040208005e04000090
:020000040000fa
:04020c005e0400008c
:020000040000fa
:040210005e04000088
:020000040000fa
:040214005e04000084
:020000040000fa
:040218005e04000080
:020000040000fa
:04021c005e0400007c
:020000040000fa
:040220005e04000078
:020000040000fa
:040224005e04000074
:020000040000fa
:040228005e04000070
:020000040000fa
:04022c005e0400006c
:020000040000fa
:040230005e04000068
:020000040000fa
:0402340004030000bf
:020000040000fa
:040238005e04000060
:020000040000fa
:04023c005e0400005c
:020000040000fa
:040240005e04000058
:020000040000fa
:040244005e04000054
:020000040000fa
:040248005e04000050
:020000040000fa
:04024c005e0400004c
:020000040000fa
:040250005e04000048
:020000040000fa
:040254001a04000088
:020000040000fa
:04025800f0030000af
:020000040000fa
:04025c00c6030000d5
:020000040000fa
:040260005e04000038
:020000040000fa
:040264005e04000034
:020000040000fa
:040268005e04000030
:020000040000fa
:04026c005e0400002c
:020000040000fa
:040270005e04000028
:020000040000fa
:040274005e04000024
:020000040000fa
:040278005e04000020
:020000040000fa
:04027c005e0400001c
:020000040000fa
:040280005e04000018
:020000040000fa
:040284005e04000014
:020000040000fa
:040288005e04000010
:020000040000fa
:04028c005e0400000c
:020000040000fa
:040290005e04000008
:020000040000fa
:040294005e04000004
:020000040000fa
:040298005e04000000
:020000040000fa
:04029c005e040000fc
:020000040000fa
:0402a0005e040000f8
:020000040000fa
:0402a4005e040000f4
:020000040000fa
:0402a8005e040000f0
:020000040000fa
:0402ac005e040000ec
:020000040000fa
:0402b0005e040000e8
:020000040000fa
:0402b4005e040000e4
:020000040000fa
:0402b8005e040000e0
:020000040000fa
:0402bc005e040000dc
:020000040000fa
:0402c0005e040000d8
:020000040000fa
:0402c4005e040000d4
:020000040000fa
:0402c8005e040000d0
:020000040000fa
:0402cc005e040000cc
:020000040000fa
:0402d0005e040000c8
:020000040000fa
:0402d4005e040000c4
:020000040000fa
:0402d8005e040000c0
:020000040000fa
:0402dc005e040000bc
:020000040000fa
:0402e0005e040000b8
:020000040000fa
:0402e4005e040000b4
:020000040000fa
:0402e8005e040000b0
:020000040000fa
:0402ec005e040000ac
:020000040000fa
:0402f0005e040000a8
:020000040000fa
:0402f4005e040000a4
:020000040000fa
:0402f8005e040000a0
:020000040000fa
:0402fc005e0400009c
:020000040000fa
:040300005e04000097
:020000040000fa
:040304005e04000093
:020000040000fa
:040308005e0400008f
:020000040000fa
:04030c005e0400008b
:020000040000fa
:040310005e04000087
:020000040000fa
:040314005e04000083
:020000040000fa
:040318005e0400007f
:020000040000fa
:04031c005e0400007b
:020000040000fa
:040320005e04000077
:020000040000fa
:040324005e04000073
:020000040000fa
:040328005e0400006f
:020000040000fa
:04032c005e0400006b
:020000040000fa
:040330005e04000067
:020000040000fa
:040334005e04000063
:020000040000fa
:040338005e0400005f
:020000040000fa
:04033c005e0400005b
:020000040000fa
:040340005e04000057
:020000040000fa
:040344005e04000053
:020000040000fa
:040348005e0400004f
:020000040000fa
:04034c005e0400004b
:020000040000fa
:040350005e04000047
:020000040000fa
:040354005e04000043
:020000040000fa
:040358005e0400003f
:020000040000fa
:04035c005e0400003b
:020000040000fa
:040360005e04000037
:020000040000fa
:040364005e04000033
:020000040000fa
:040368005e0400002f
:020000040000fa
:04036c005e0400002b
:020000040000fa
:040370005e04000027
:020000040000fa
:040374005e04000023
:020000040000fa
:040378005e0400001f
:020000040000fa
:04037c005e0400001b
:020000040000fa
:040380005e04000017
:020000040000fa
:040384005e04000013
:020000040000fa
:040388005e0400000f
:020000040000fa
:04038c005e0400000b
:020000040000fa
:040390005e04000007
:020000040000fa
:040394005e04000003
:020000040000fa
:040398005e040000ff
:020000040000fa
:04039c005e040000fb
:020000040000fa
:0403a0005e040000f7
:020000040000fa
:0403a4005e040000f3
:020000040000fa
:0403a8005e040000ef
:020000040000fa
:0403ac005e040000eb
:020000040000fa
:0403b0005e040000e7
:020000040000fa
:0403b4005e040000e3
:020000040000fa
:0403b8005e040000df
:020000040000fa
:0403bc005e040000db
:020000040000fa
:0403c0005e040000d7
:020000040000fa
:0403c4005e040000d3
:020000040000fa
:0403c8005e040000cf
:020000040000fa
:0403cc0052030000d8
:020000040000fa
:0403d0005e040000c7
:020000040000fa
:0403d4005e040000c3
:020000040000fa
:0403d8005e040000bf
:020000040000fa
:0403dc005e040000bb
:020000040000fa
:0403e0005e040000b7
:020000040000fa
:0403e4005e040000b3
:020000040000fa
:0403e8005e040000af
:020000040000fa
:0403ec005e040000ab
:020000040000fa
:0403f0005e040000a7
:020000040000fa
:0403f4005e040000a3
:020000040000fa
:0403f8005e0400009f
:020000040000fa
:0403fc005e0400009b
:020000040000fa
:100400006f9a20000e7f22000e018800000000007d
:10041000000020000000e000020032000001200087
:100420002002880014000700260107000000e000f9
:1004300003003a00c0fc2000010020000200370049
:100440000000200001002000810f70000100320038
:1004500014000700000020000000e000020032004d
:1004600000000200000000000c100200000000006c
:100470000040da000000fe004440a90020002000f7
:100480000000e0000300320010002000900188000e
:100490004440a800000006008a1f78008b1f7800e7
:1004a00000000600a1028800800478000000eb0034
:1004b0001f003700e284440054a0b4009905ba003c
:1004c000e284440054a0b4009906ba00e2844400d7
:1004d00054a0b4000006eb00476fde00fd07b20039
:1004e000ae018800636ce10003003a00eaff0700f8
:1004f0000000eb000e003700606ce10008003a00dd
:10050000004deb000a05e800020039003420ec0041
:100510000af0a0008b05e900f9ff3e000400370057
:100520006168e100010032000086eb000b0007006b
:1005300019c7ba001905ba000e04e00003003a001a
:100540000a00e000dbff3a0000000600fe07b200f0
:10055000ae0288008a047800f5ff37000cd0a300b3
:10056000e20f4d001c00390089027800354dba00b9
:100570000a05e800020039003420ec000af0a0006f
:100580008b05e9000f003200254dba000a05e8008e
:10059000020039003420ec000af0a0008b05e900cd
:1005a000080032000c00e0000600320015cdba0051
:1005b0000a05e800020039003420ec000af0a0002f
:1005c0008b05e9008984e80054a0b4000b00e0002a
:1005d000e2ff3a00000006009902ba00055d7800cb
:1005e0008b05e900f7ff3200c82ade00055d7800c0
:1005f0008b05e900f3ff32000c00e000f1ff320050
:1006000019ddba00eeff370000a0fe003600f8004a
:10061000849fbe00869fbe003200f8003400f800c0
:1006200014002000a4018800140020009401880018
:100630000000fa0021178000000220000080600006
:1006400000f0a7000000ea000000e9004f00de0013
:10065000004078000080fb00610060004500dd0084
:10066000211780000150a1000100700020178800b0
:100670008460a900028220001100200000012000f7
:10068000ad0207000080fa003400f9003200f900e2
:100690004f03be004f02be003600f9000080fe008e
:1006a000004006003600f800809fbe00829fbe001a
:1006b000849fbe00869fbe000000fa009120a90022
:1006c000b02680008040880080408000cf80de001f
:1006d000420107003233230033052400e6010700fe
:1006e0000200200003782400d500070032332300e5
:1006f00033fd23007500070090408800a14088006a
:1007000090408000a1408000323323003305240054
:10071000cb0007000200200003482400d601070098
:100720000d010700000078008040880080408000b4
:100730001022880021178000000420000080600043
:1007400000f0a7000000ea000000e9004f00de0012
:10075000004078000080fb00610060004600dd0082
:10076000211780000160a10001007000201788009f
:100770000080fa004f03be004f02be004f01be00d2
:100780004f00be003600f90000400600809fbe000a
:100790000000fa0085a0a9002117800000042000b5
:1007a0000080600000f0a7000000ea000000e900ff
:1007b0004f00de00004078000080fb006100600018
:1007c0004600dd00211780000160a10001007000db
:1007d000201788000080fa004f00be00004006008d
:1007e0003600f800809fbe00829fbe00849fbe003e
:1007f000869fbe000000fa008580a900c1408000ed
:10080000b0408000808f500002003200be0407001c
:10081000010037001a68ef000080fa004f03be00a5
:100820004f02be004f01be004f00be003600f9006f
:10083000004006003600f800809fbe00829fbe0088
:10084000849fbe00869fbe000000fa008560a9005c
:1008500010118000640060000000e0000100320020
:100860002242a90010118000620060000000e00038
:10087000060032002222a900050037003011800056
:1008800000407800bd0407000100370000000000b0
:1008900010118000610060000000e000f7ff3a00e6
:1008a0000080fa004f03be004f02be004f01be00a1
:1008b0004f00be003600f900004006000040da009c
:1008c0000000fe000000050003f0a200889fbe00ab
:1008d0008a9fbe008c1f78004f010700560133002d
:1008e0006450e1004f0032006420e1005200320009
:1008f00003826c0007003b000905d0000306d0000e
:10090000820f54000c065d00020039000200320024
:1009100089017800030678008582550004003d00b7
:100920000003fd008103fd008502ea008b85420083
:10093000840f720002003b0060001000e08018008d
:100940006011b8000005eb007a28e1000a003900c8
:1009500006007800c75ddd00f707b20087807500ec
:100960002d003700828171000a0178006105600066
:100970008180d1000080d3008502e900f9ff3b00af
:10098000060440008784480002003b006004140015
:10099000e0841c000988a300070032008a817100ee
:1009a00082817100610164008904d1000884d30050
:1009b0008b05e800170037000978a30013003a0000
:1009c0000b00e000130034008b05e900080444002c
:1009d00089844c000a4474000978a3000d003a0091
:1009e0000b00e000070034008b05e9000804440018
:1009f00089844c0001003a000b0020000978a30014
:100a0000f7ff32000001eb00020037008281710025
:100a10000a017800c50007000cf0a70001f0a00053
:100a20000e0137006420e10002003a00838f6c0061
:100a30000e0133000801be000200be0007013700ae
:100a4000889fbe008a9fbe008c1f7800f2000700be
:100a5000f900330003866c006450e1002e00320080
:100a60006420e100330032006150e1002f003200c9
:100a70006120e1003100320085855500eb07b000b0
:100a80000900200008042000050037000804440085
:100a900089844c000a0031000603430087834b0021
:100aa0000001530081815b00f8ff33000203be00a8
:100ab0000800a0000804440089844c00f6ff3900b7
:100ac000c639dd00830173000100320013002000ed
:100ad0008904d1000884d3000998a30005003200de
:100ae0000800a7000300a0008904d1000884d300f7
:100af0008b05e8008904d1000884d3000001eb00d5
:100b00000281d2008900070001f0a1000cf0a700cb
:100b100001f0a000d10037006420e100d3003200d2
:100b20000801be000200be00f7ff37006120e100af
:100b3000ce0032006000b800f3ff37000000200054
:100b400001f82700f0ff370014002000fe003700f6
:100b5000f4ff2f00fc0037000001be0099000700e1
:100b60000470a70003f0a1006509b100160032006f
:100b70000d0035006828e10006003500f0ff2f0069
:100b8000f1ff27000300e00013003b0001002800f4
:100b90000000050000004000818048008502e90057
:100ba000fcff3a0008003700f88f420002003c00ca
:100bb0008000eb00000005008100d1000080d30020
:100bc0008502e800fcff3a000300e00002003b0061
:100bd00060001000e0801800000006004f89de0071
:100be00082017800f3003700040020000000370085
:100bf000889fbe008a9fbe008c1f78004f26dd00b4
:100c0000850007008c0033006120e10043003200c2
:100c10006250e10041003e003e0039006420e100e6
:100c20003c003200058255000f003b000402e80042
:100c300038003a00800f5300818f5b00350034008c
:100c40000800be0003f0a10001f0a60003f0a00020
:100c50000cf0a7001dff07008000370006034300cb
:100c600087834b000c4646000005530081855b00de
:100c7000020033000a03be000c00a0000402e900d9
:100c8000f6ff3b00850578000602430087824b0093
:100c900004003a006000b80009f0a70001f0a000cd
:100ca0006e0037000002520081825a000704e00003
:100cb000040033000603430087834b008b05e900e3
:100cc000faff3700090578000604be000203be00e3
:100cd0006011b80015000700e00f5200e08f5a00c5
:100ce0000700350002003c000c08a300040032009d
:100cf0000601be0003f0a0000cf0a700f3fe070001
:100d00000a85680001f0a1000af0a70001f0a00028
:100d1000520037000800be005000370010022000cb
:100d20000cf0a60020418800500037008100200010
:100d3000618055000b003d000b00200061fe2f007c
:100d40000100e1001d003400828171006101640036
:100d50008904d1000884d3000000e800faff3a00bb
:100d60007100200061006400030070000200600058
:100d70000900320061044400e0844c000988a500a9
:100d8000050032008b05e8006808e10002003a0027
:100d90008904d1000884d300f20f20000258e1003a
:100da00005003d00c75ddd00f907b20089807500d0
:100db00008007800000006000bf827008b00780080
:100dc00000000500c70ade00f107b200f50fb2000f
:100dd00008003200e1cf4200020032000170a000a2
:100de00024000500810f7000010032000408050096
:100df00044000500810f700002003a001400050055
:100e00008502e9000000400081c04800fcff3b0073
:100e10000170a000240005000004be00e9ff0700e7
:100e20000003be000405be000200be00e5ff07008f
:100e3000844f7500000006000200be006450e1000f
:100e4000050036006420e100020036000968a300b6
:100e500001003a000800be000160a0004f067800c3
:100e60004f05be004f04be0000000600f0ff2f003b
:100e7000f1ff2700f9ff3700889fbe008a9fbe0060
:100e80008c1f7800e4ff0700ebff330003866c0043
:100e90006450e100240032006420e10027003200a9
:100ea0006150e100220032006120e10021003200a7
:100eb0008b854200eb07b1000134b800003ab8005e
:100ec0000804420089844a00013ab8000030b800a2
:100ed0008880400009014a000400330000004000ff
:100ee00081804800020149008b05e900c909dd0045
:100ef000830170000100320013002000c814de00de
:100f00004814dd004709de001200b200c808de0008
:100f10000884700085ff070001f0a1000cf0a70015
:100f200001f0a000cdff37006120e100cfff3200cb
:100f30000801be000200be00f7ff37006150e1006b
:100f4000fcff3a00c9ff3700889fbe008a9fbe00a1
:100f5000841f7800b0ff07004f00780011003300b5
:100f6000f0ff2f00838f6c0006003b000405650036
:100f70000a00a7000800370009f0a60010002000b2
:100f800008003700820f5400838f5c000300390093
:100f90001000200001003e000000200009f0a70022
:100fa0000000ea004f05be004f04be000000e00054
:100fb00000000600881f7800030478000300e000aa
:100fc00007003d0060001000e0801800600119007b
:100fd000e081190002003b0001f02d000300370002
:100fe0000400070008f0a70001f0a0004f047800fb
:100ff00000000600889fbe008a9fbe00008270002d
:101000000402710004827100260032000004be0058
:101010000200be006011b8006b092000950220009c
:101020000182cf000a0039000541b1000082cf00e3
:10103000070039000541b1000982cf0004003900e2
:101040000541b1000882cf00010039000541b1001f
:1010500005425200120032000a003b0082817100fa
:10106000610164008100d1000080d3008984d30035
:101070000884d3008b05e8000442e800f7ff3a003b
:10108000070037000804440089844c000000480031
:10109000818048008b05e9000442e900f9ff3a002d
:1010a00022ff07004f05be004f04be0000000600ef
:020000040000fa
:1010b0000a00fa00200798003107980042079800bc
:1010c000e0cfb300004f78002e0090008040780001
:1010d0001e40780000c06800004f78003e0090007d
:1010e000804078001e40780000c06800004f780003
:1010f0000000eb0010079800080037001e00900069
:10110000ce00900000804000104078001e4f680024
:101110001e0090000000e800100798009e0090005c
:101120003e009000808f5000f4ff35001e40780094
:101130000080fa00000006000e00fa00889fbe0042
:101140004007980051079800620798000f04780044
:101150000f007800800478000000eb00000f78009a
:101160000000eb00100798005e0090006600400051
:101170008000e900210798000000e8000000e80076
:101180000000d100800040000f00780081874700f8
:101190000000e8000000d100000040003007980087
:1011a0003e0090001e004000e1cfb30001487800ef
:1011b0001e0fe8004e0090004880de00804078005e
:1011c0003e0090001e004000014878001e0fe8001d
:1011d0004e009000804078003e0090001e004000cd
:1011e000014878001e0fe8005e0090004880de0095
:1011f000804078003e0090001e00400001487800ca
:101200001e0fe8005e009000804078003e009000d5
:101210001e004000014878001e0fe8000000eb00af
:10122000100798000b0037001e009000ee009000a1
:1012300000804000904078003e0090001e0040007a
:10124000014878001e0fe8001e0090000000e80032
:10125000100798009e0090005e009000808f500064
:10126000f1ff35006e019000de0090004e0090000e
:101270008fff0700be0090009e80400080487800ed
:101280001e0fe8003e0090009e007800e10107007c
:1012900089077800880778004f04be000080fa00b4
:1012a000000006000200fa00004f78006040800055
:1012b000e30f500024003200e30f500005003e0011
:1012c000e10f500011003200e10f500017003e0006
:1012d00007003700e50f500031003200e50f5000e5
:1012e00021003900e60f50003a003200510037006b
:1012f0001e407800e24f400051003a0010002000ec
:10130000604088000628ef00500037001e80fb0078
:1013100000408800004080004800dd000040880058
:101320002000200060408800480037009e80fb00bd
:101330000040800000804000004088003000200015
:1013400060408800410037001e80fb00104088008c
:10135000104080004800dd00104088004000200060
:1013600060408800390037009e80fb0010408000fc
:101370000080400010408800104080000000e00025
:1013800003003a0060002000604088002f00370012
:1013900050002000604088000428ef002b00370038
:1013a00020408000618220001e4178008270780019
:1013b0000000e800204088002140800010408000ac
:1013c000808f500020003a006000200060408800bc
:1013d0001e0037001e41780081802000824878007e
:1013e00011408000004080006282200030ff070032
:1013f00009e8b700100020003040880081802000fc
:101400009140780009c8bf0080cf500006003a0024
:101410001000200010418800004080006182200000
:101420000c000700010037002228ef000c28ef0015
:10143000060037000c28ef00000000000300370012
:101440000000000001003700000000000080fa00ea
:10145000000006000400fa00000f78001107980051
:101460000080fa00000006000400fa00881f7800df
:10147000008fbe0018c0b3006011b8001e00be008f
:10148000b3fd07000000e00001003d000044eb0058
:101490000804e000020032001e00be000200370017
:1014a0001e00be0001f0a2004f0478000080fa0088
:1014b000000006000800fa00881f7800008fbe00b8
:1014c000220798003307980018c0b3002e0190003f
:1014d000be0190001e00be009dfd07000000e00060
:1014e00001003c000044eb000804e0000200320070
:1014f0001e00be00020037002e009000be009000cb
:101500004f0478000080fa00000006000800fa008e
:10151000881f7800008fbe002207980033079800cc
:1015200018c0b3002e019000be0190001e00be0046
:1015300085fd07000000e000010035000044eb00dd
:101540000804e000020032001e00be000200370066
:101550002e009000be0090004f0478000080fa003a
:10156000000006000c00fa00881f7800008fbe0003
:101570002207980033079800440798005507980001
:1015800018c0b3002e019000be0190001e00be00e6
:101590006dfd07000000e000010035000044eb0095
:1015a0000804e000030032002e009000be0090000e
:1015b0000e00370018c0b3004e019000de0190000d
:1015c0001e00be0062fd07000000e00001003c00bc
:1015d0000044eb000804e000030032004e009000dd
:1015e000de009000010037001e00be004f047800ae
:1015f0000080fa00000006000800fa0020079800aa
:1016000031079800b2fd2000930424002e009000c2
:10161000be009000acfc0700b2fd2000930c24003b
:1016200071fd0700b2fd200093042400a7fc070011
:10163000008fbe00b2fd2000930424001e00be00f7
:10164000a2fc0700b2fd2000930c240066fd0700f9
:10165000b2fd2000930424009bfc07000080fa00e8
:10166000000006000a00fa003007980041079800c1
:10167000be0090004e009000008f40001e007800d9
:101680001001be0012079800230798001e0090006a
:10169000ae0090000080fa00000006000600fa008c
:1016a00010079800210798009e0090002e009000df
:1016b000008f40001e0078001000be000080fa007d
:1016c000000006000c00fa0020079800310798007f
:1016d00042079800530798006800470010079800d9
:1016e0000000eb00000f78000a0037003e00900079
:1016f0001e004000ae009000008040009e00780078
:101700001e0190008100410091407800014878005e
:101710001e0fe8001e007800e30f5000f3ff3400b6
:101720000080fa00000006000c00fa002007980074
:101730003107980042079800530798006800470057
:10174000100798000000eb00000f78000b00370036
:101750003e0090001e004000ae009000008040005f
:10176000320020009e0051001e01900081004100c7
:1017700091407800014878001e0fe8001e007800b4
:10178000e30f5000f2ff34000080fa000000060072
:101790000c00fa00200798003107980042079800d3
:1017a0005307980068004700100798000000eb00fe
:1017b000000f78000a0037003e0090001e00400035
:1017c000ae009000008040009e0078001e01900056
:1017d0008100410091407800014878001e0fe80028
:1017e0001e007800e70f5000f3ff34000080fa007d
:1017f000000006000000fa000421ef000021ef00c5
:1018000021058000f0ff28000080600000c0a000db
:10181000200588000421a9008460a9009460a80024
:1018200005e1a80000002000812c24000c00070026
:1018300012002000030020008000eb000082200046
:10184000b9ff070022002000030020001100200043
:1018500000822000b4ff07000080fa0000000600ac
:101860000400fa00881f7800008fbe002108800065
:10187000f0fc2f0000806000200888001e01be00e0
:101880000040220041b724006dfc070018c0b300df
:1018900002f02f00f3772400adfc07000000e00009
:1018a00001003c000044eb000804e0004f0032005f
:1018b00021088000f0fc2f00008060000040a000a4
:1018c000200888001e01be000040220041b724000d
:1018d0005bfc0700020020000310240058fc0700f6
:1018e00018c0b30002f02f00f377240098fc070023
:1018f0000000e00001003c000044eb000804e000b0
:101900002f00320021088000f0fc2f0000806000d2
:101910000050a000200888001e01be0000402200e8
:1019200041b7240046fc07000200200003282400e1
:1019300043fc070018c0b30002f02f00f377240027
:1019400083fc07000000e00001003c000044eb00c5
:101950000804e0000f00320021088000000320008e
:1019600001007000200888001e01be000040220017
:1019700041b7240032fc0700020020000338240095
:101980002ffc070074fc0700000078001008880096
:101990001d0037001e01be000040220041b7240098
:1019a00027fc0700020020000328240024fc070075
:1019b00069fc07000000780010088800120037005a
:1019c0001e01be000040220041b724001cfc07009d
:1019d000020020000310240019fc07005efc070031
:1019e0000000780010088800070037001e01be00c4
:1019f0000040220041b7240011fc070056fc0700fc
:101a000000007800100888004f0478000080fa0079
:101a1000000006000600fa00100798002107980051
:101a20000040eb00004f780044000700ae0090003b
:101a3000810f5000110034000040eb00004f78008f
:101a4000060037001e80fb009e00900000804000d2
:101a5000104078000b0007001e4fe8009e80fb003e
:101a60002e009000808f5000f6ff35002f000700f9
:101a70000004e00001003a00230007000080fa00a3
:101a8000000006000200fa00004f7800b04080001d
:101a9000618a20001e41780082707800b140800089
:101aa000e0072000808f5000020034001628ef006d
:101ab00003003700b04080000000e800b04088001c
:101ac0000080fa00000006000200fa00c04080001a
:101ad000618a2000614f7800c1408000e00720004b
:101ae000808f5000020034001828ef0003003700f8
:101af000c04080000000e800c04088001e40780020
:101b00000080fa00000006000200fa0010c0b300d6
:101b10001ae8b700ecff0700004f78001e80fb00ba
:101b2000201188000080fa00000006000000fa0082
:101b30001ac8bf000080fa00000006000000fa008a
:101b4000b1408000c0408000808f5000050034000c
:101b5000c1408000b0408000008050000008b0000c
:101b600004003700b1408000c04080000080500079
:101b70000008b0000080fa00000006000200fa0031
:101b8000004f78002b0007000000e0000d0034003b
:101b9000e0408000619220001e4178008270780051
:101ba000e1408000e0072000808f500002003400f8
:101bb0001c28ef0003003700e04080000000e80030
:101bc000e04088000080fa00000006000200fa00f1
:101bd000f040800061922000614f7800f140800069
:101be000e0072000808f5000020034001e28ef0024
:101bf00003003700f04080000000e800f04088005b
:101c00001e4078000080fa00000006000000fa0084
:101c1000e1408000f0408000808f500002003200e0
:101c200010c0b300010037000040eb000080fa0054
:101c3000000006000000fa00e1408000f040800053
:101c4000808f500005003400f1408000e0408000ab
:101c5000008050000008b00004003700e140800020
:101c6000f0408000008050000008b0000080fa00c2
:101c7000000006000000fa00eeff07000108200047
:101c8000008050000080fa00000006000000fa000a
:101c9000e0a2a900e0c2a900f122a800ed24a8005a
:101ca000c9a2a800e3a4a8002135800000fc2f00f1
:101cb000008060007001b30020358800c1368000cc
:101cc00000fc2f00008060000000a000c0368800eb
:101cd0000080fa00000006000000fa00313a80009f
:101ce000f08f2f00008060000080a000303a880054
:101cf000313a8000f0f32f0000806000303a880015
:101d000046a7a8001200200080072000a10920009b
:101d10003374200080497800814978008249780036
:101d2000103a8000000178000200a000600420004a
:101d300071052000237420008049780081497800d3
:101d40008249780000000000113a80000002200063
:101d5000008060000000e000fbff32000080fa001d
:101d6000000006000000fa002002a9000111800016
:101d700090ff2f00008060000011880020a2a900c1
:101d80002062a800100220004011880023a2a900b0
:101d900023e2a9008580a9009580a8001111800088
:101da000f0f32f0000806000101188008560a9000a
:101db0009560a80021e2a8002342a8000080fa0054
:101dc000000006000600fa0010079800210798009e
:101dd0000040eb00004f78000040eb00004f78001f
:101de0000e003700000000001111800000202000cc
:101df000008060000000e000fbff3a001e00900041
:101e0000104078000080fb00201188001e00900028
:101e10000000e800100798001e4fe8009e80fb00bd
:101e20002e009000808f5000eeff35000080fa00f9
:101e3000000006000000fa00d1e4a900812680001d
:101e4000f0f32f00008060000070a0008026880062
:101e500091268000f0cf2f00008060000080a0005d
:101e60009026880091268000000023000100700069
:101e7000902688009126800070fe2f000080600070
:101e800090268800a1268000f0ff210000806000dd
:101e900000e0a000a0268800a1268000f03f2e00d0
:101ea0008080600000c0200001007000a026880033
:101eb0009120a900a120a800d1e4a8000e28ef00dd
:101ec0000a0037009120a900000000008104800072
:101ed00000202000008060000000e000fbff3200d6
:101ee000704080000000e800704088007040800072
:101ef000e70f5000f3ff34000080fa0000000600f6
:101f00000000fa0095a0a80085a0a9000005a8007f
:101f100005e5a800f1288000f0ff2900008060009e
:101f200000d0a000f02888000118800000f82f00e1
:101f300000806000d000b30000188800f128800005
:101f400000fe2f00008060000000a000f028880044
:101f500001e5a80000000000502880006200600039
:101f60000000e000fcff320000c5a80000000000f7
:101f700050288000620060000000e000fcff32009a
:101f80001dc5a8000080fa00000006000000fa004d
:081f90000080fa0000000600c9
:020000040000fa
:101f98002008000002000000800000000e08000079
:101fa80008000000800000002608000080000000f3
:101fb80080000000000800000e0000008000000003
:101fc800220800000200000082000000ffff00005d
:101fd800a60800008000000080000000160800002d
:101fe80006000000800000002609000080000000b4
:101ff800800000001c0800000400000080000000b1
:10200800240800000200000080000000000000001a
:020000040000fa
:102018000000fa001bff0700f4fd07002cff070073
:1020280082ff070003000700b3ff07004bff07000c
:10203800ffff37000000fa0001228000c0ff2f00d8
:10204800008060000010a0000022880041e4a80081
:082058000080fa000000060000
:020000040000fa
:020000040002f8
:04aff000ffc300009b
:020000040000fa
:020000040002f8
:04aff400ffff00005b
:020000040000fa
:020000040002f8
:04aff8003ff900001d
:020000040000fa
:020000040002f8
:04affc00ff7f0000d3
:00000001FF
